{
  "contractName": "BillOfSale",
  "abi": [
    {
      "constant": true,
      "inputs": [],
      "name": "seller",
      "outputs": [
        {
          "name": "",
          "type": "address"
        }
      ],
      "payable": false,
      "stateMutability": "view",
      "type": "function",
      "signature": "0x08551a53"
    },
    {
      "constant": true,
      "inputs": [],
      "name": "buyer",
      "outputs": [
        {
          "name": "",
          "type": "address"
        }
      ],
      "payable": false,
      "stateMutability": "view",
      "type": "function",
      "signature": "0x7150d8ae"
    },
    {
      "constant": true,
      "inputs": [],
      "name": "price",
      "outputs": [
        {
          "name": "",
          "type": "uint256"
        }
      ],
      "payable": false,
      "stateMutability": "view",
      "type": "function",
      "signature": "0xa035b1fe"
    },
    {
      "constant": true,
      "inputs": [],
      "name": "confirmed",
      "outputs": [
        {
          "name": "",
          "type": "bool"
        }
      ],
      "payable": false,
      "stateMutability": "view",
      "type": "function",
      "signature": "0xa968991b"
    },
    {
      "constant": true,
      "inputs": [],
      "name": "descr",
      "outputs": [
        {
          "name": "",
          "type": "string"
        }
      ],
      "payable": false,
      "stateMutability": "view",
      "type": "function",
      "signature": "0xbbba3644"
    },
    {
      "payable": true,
      "stateMutability": "payable",
      "type": "fallback"
    },
    {
      "constant": false,
      "inputs": [
        {
          "name": "_descr",
          "type": "string"
        },
        {
          "name": "_price",
          "type": "uint256"
        },
        {
          "name": "_seller",
          "type": "address"
        },
        {
          "name": "_buyer",
          "type": "address"
        }
      ],
      "name": "recordContract",
      "outputs": [],
      "payable": false,
      "stateMutability": "nonpayable",
      "type": "function",
      "signature": "0x0585ea69"
    },
    {
      "constant": false,
      "inputs": [],
      "name": "confirmReceipt",
      "outputs": [],
      "payable": true,
      "stateMutability": "payable",
      "type": "function",
      "signature": "0x7d94ad98"
    }
  ],
  "bytecode": "0x608060405234801561001057600080fd5b50610622806100206000396000f3fe6080604052600436106100825763ffffffff7c01000000000000000000000000000000000000000000000000000000006000350416630585ea69811461008457806308551a531461015b5780637150d8ae146101995780637d94ad98146101ae578063a035b1fe146101b6578063a968991b146101dd578063bbba364414610206575b005b34801561009057600080fd5b50610082600480360360808110156100a757600080fd5b8101906020810181356401000000008111156100c257600080fd5b8201836020820111156100d457600080fd5b803590602001918460018302840111640100000000831117156100f657600080fd5b91908080601f01602080910402602001604051908101604052809392919081815260200183838082843760009201919091525092955050823593505073ffffffffffffffffffffffffffffffffffffffff602083013581169260400135169050610290565b34801561016757600080fd5b506101706102fe565b6040805173ffffffffffffffffffffffffffffffffffffffff9092168252519081900360200190f35b3480156101a557600080fd5b5061017061031a565b610082610336565b3480156101c257600080fd5b506101cb6104a3565b60408051918252519081900360200190f35b3480156101e957600080fd5b506101f26104a9565b604080519115158252519081900360200190f35b34801561021257600080fd5b5061021b6104b2565b6040805160208082528351818301528351919283929083019185019080838360005b8381101561025557818101518382015260200161023d565b50505050905090810190601f1680156102825780820380516001836020036101000a031916815260200191505b509250505060405180910390f35b83516102a390600290602087019061055b565b506003929092556000805473ffffffffffffffffffffffffffffffffffffffff9283167fffffffffffffffffffffffff0000000000000000000000000000000000000000918216179091556001805492909316911617905550565b60005473ffffffffffffffffffffffffffffffffffffffff1681565b60015473ffffffffffffffffffffffffffffffffffffffff1681565b60015473ffffffffffffffffffffffffffffffffffffffff1633146103bc57604080517f08c379a000000000000000000000000000000000000000000000000000000000815260206004820152601660248201527f6f6e6c792062757965722063616e20636f6e6669726d00000000000000000000604482015290519081900360640190fd5b60035430311461042d57604080517f08c379a000000000000000000000000000000000000000000000000000000000815260206004820152601d60248201527f7075726368617365207072696365206d7573742062652066756e646564000000604482015290519081900360640190fd5b6000805460405173ffffffffffffffffffffffffffffffffffffffff90911691303180156108fc02929091818181858888f19350505050158015610475573d6000803e3d6000fd5b50600480547fffffffffffffffffffffffffffffffffffffffffffffffffffffffffffffff00166001179055565b60035481565b60045460ff1681565b600280546040805160206001841615610100027fffffffffffffffffffffffffffffffffffffffffffffffffffffffffffffffff01909316849004601f810184900484028201840190925281815292918301828280156105535780601f1061052857610100808354040283529160200191610553565b820191906000526020600020905b81548152906001019060200180831161053657829003601f168201915b505050505081565b828054600181600116156101000203166002900490600052602060002090601f016020900481019282601f1061059c57805160ff19168380011785556105c9565b828001600101855582156105c9579182015b828111156105c95782518255916020019190600101906105ae565b506105d59291506105d9565b5090565b6105f391905b808211156105d557600081556001016105df565b9056fea165627a7a72305820013c857d25ef2da39640f8cb5b60b7e1a982f3556289911646cd1b6aad777f270029",
  "source": "pragma solidity ^0.5.0;\ncontract BillOfSale {\n  address payable public seller;\n  address public buyer;\n  string public descr;\n  uint public price;\n  bool public confirmed;\n  //from OpenLaw Template\n  function recordContract(string memory _descr, uint _price,\n    address payable _seller, address _buyer\n  ) public {\n    descr = _descr;\n    price = _price;\n    seller = _seller; \n    buyer = _buyer;\n  }\nfunction () external payable { }\nfunction confirmReceipt() public payable {\n    require(msg.sender == buyer, \"only buyer can confirm\");\n    require(address(this).balance == price, \"purchase price must be funded\");\n    address(seller).transfer(address(this).balance);\n    confirmed = true;\n  }\n}",
  "sourcePath": "/Users/michaelchan/Desktop/Openlaw-Api-Tutorial-public/contracts/BillOfSale.sol",
  "compiler": {
    "name": "solc",
    "version": "0.5.0+commit.1d4f565a.Emscripten.clang"
  },
  "schemaVersion": "3.0.1",
  "updatedAt": "2019-03-10T18:16:00.086Z",
  "devdoc": {
    "methods": {}
  },
  "userdoc": {
    "methods": {}
  }
}